:020000040800F2
:1000000000000220D98E0008458F0008458F0008A7
:10001000458F0008458F0008458F0008000000004C
:10002000000000000000000000000000458F0008F4
:10003000458F000800000000458F0008458F00082C
:10004000458F0008458F0008458F0008458F000840
:10005000458F0008458F0008458F0008458F000830
:10006000458F0008458F0008F9800008458F00087B
:10007000458F0008458F0008458F0008458F000810
:10008000458F0008458F0008458F0008458F000800
:10009000458F0008458F0008458F0008458F0008F0
:1000A000458F0008458F0008458F0008458F0008E0
:1000B000458F0008458F0008458F0008458F0008D0
:1000C000458F0008458F0008458F0008458F0008C0
:1000D000458F0008458F0008458F0008458F0008B0
:1000E000458F0008458F0008458F0008458F0008A0
:1000F000458F0008458F0008458F0008458F000890
:10010000458F0008458F0008458F0008458F00087F
:10011000458F0008458F0008458F0008458F00086F
:10012000458F0008458F0008458F0008458F00085F
:10013000458F0008458F0008458F0008458F00084F
:10014000458F0008458F0008458F0008458F00083F
:10015000458F0008458F0008458F0008458F00082F
:10016000458F0008458F0008458F0008458F00081F
:10017000458F0008458F0008458F0008458F00080F
:08018000458F0008458F0008BF
:1001C0000348044B834202D0034B03B118477047E6
:1001D0009801002098010020000000000548064B0F
:1001E0001B1AD90F01EBA301491002D0034B03B135
:1001F0001847704798010020980100200000000077
:1002000010B5064C237843B9FFF7DAFF044B13B15E
:100210000448AFF300800123237010BD9801002033
:1002200000000000488F000808B5044B1BB10449CA
:100230000448AFF30080BDE80840CFE700000000AD
:100240009C010020488F0008002A01D002F5807A26
:10025000704700BF162030A1ABBE2F48416800296F
:1002600001D0344A11600168002901D13049016090
:100270008168C268294B002900D00B469D46FFF7D4
:10028000E3FF00218B460F462548264A121A00F04C
:100290007BF801F067F915202449ABBE23490968B2
:1002A000002001B40B780131002B15D0202BF9D0A0
:1002B000222B01D0272B01D11A0001E02022013985
:1002C00002B401300B780131002B05D09A42F9D1EC
:1002D00000224B1E1A70E5E76946020092006A444C
:1002E0006B469A4206D9043A14681D6815601C6072
:1002F0000433F6E76C460725AC43A54604000D0021
:10030000094800F0A5F800F017F82000290005F0D2
:1003100059F900F08BF800BF040000200000000035
:1003200098010020C04A01205D040008140100204B
:10033000C04A01207C01002070B50F4B0F4DAB422D
:10034000A3EB050607D0B610002455F8043B013492
:100350009847A642F9D808F029FE094D094B5E1BC3
:10036000AB424FEAA60606D0002455F8043B013400
:100370009847A642F9D870BD907A0108907A010892
:10038000907A0108947A0108830730B547D0541E4B
:10039000002A3ED0CAB2034601E0013C39D303F83B
:1003A000012B9D07F9D1032C2CD9CDB205EB0525E6
:1003B0000F2C05EB054535D9A4F1100222F00F0CE6
:1003C00003F1100EE6444FEA121C1A46C2E900552A
:1003D000C2E9025510327245F8D10CF1010214F055
:1003E0000C0F03EB021204F00F0C13D0ACF104035A
:1003F00023F003030433134442F8045B9342FBD11C
:100400000CF003042CB1C9B21C4403F8011BA34235
:10041000FBD130BD64461346002CF4D1F9E7034606
:100420001446C0E71A46A446E0E700BF08B5064BED
:10043000044613B1002100F0F7FB044B1B6803B125
:100440009847204600F0FEFC290C0008EC02002032
:10045000002301461A46184600F01EBB38B5074D6A
:10046000074C2C1BA41005D0013C55F8043D9847BF
:10047000002CF9D1BDE8384008F09EBD987A0108FB
:10048000947A010800207047024A0349034800F0AB
:10049000E1BA00BF1C010020CD0700083001002098
:1004A0000C4B4168994210B5044601D000F08EF91A
:1004B000A168094B994202D0204600F087F9E16813
:1004C000064B994204D02046BDE8104000F07EB9AA
:1004D00010BD00BFB40100201C02002084020020D7
:1004E000002070472DE9F8432A4C2B49DFF8BC90D7
:1004F000DFF8BC80294FC4F83811002504230822F6
:10050000294604F15C00264EE360C4E90055C4E9C5
:100510000455A5606566A561FFF736FF214B63674B
:100520000822294604F1C400C4E90849C4E90A873D
:10053000C4E91A55C4E91E552567C4F8CC50C4F85F
:1005400080502663FFF720FF174BC4F8DC302946A4
:1005500004F16803082204F59670C4F88830C4E9F1
:100560002398C4E92576C4E93455C4E93855C4F85C
:10057000D850C4F83451C4F8E850FFF705FF04F12F
:10058000D003C4E93D98C4E93F76C4F8F030BDE833
:10059000F88300BFB401002089040008D90B0008CB
:1005A000FD0B00080900010012000200710B000899
:1005B000990B0008F8B5254BD3F838310646002BC7
:1005C0003CD0234FD7E90134013B04D51DE05A1C30
:1005D00004F1680419D0B4F90C50013B002DF6D198
:1005E0001C4BE360C4E90155C4E904556566256008
:1005F000A5610822294604F15C00FFF7C5FEC4E9A5
:100600000D55C4E912552046F8BD3D680DB12F4681
:10061000D8E74FF4D671304600F03EF9044680B179
:100620000423C0E900530C302946A0604FF4D07277
:100630002546FFF7A9FE3C602F46C3E7FFF752FFB0
:10064000BFE70C2338603360DDE700BFB401002052
:100650001C0100200100FFFF036A03B17047044B37
:10066000044AD3F838310262002BF7D13AE700BFD1
:10067000B4010020A1040008704700BF704700BF0C
:10068000024A0349002000F0E5B900BF1C01002028
:1006900085040008024A0349002000F0DBB900BFCE
:1006A0001C010020E1040008B1F90C302DE9F041F3
:1006B0001E070C4680463DD44A68002A56DDE56A8E
:1006C000002D34D00022D8F80060C8F8002013F4C0
:1006D0008052216A57D101234046A847451C024653
:1006E00066D0B4F90C30E56A216A580705D563680D
:1006F000D21A636B0BB1236CD21A00234046A84771
:10070000431C42D00023636023692360A389DF0474
:1007100000D56065616BC8F8006041B104F1440325
:10072000994202D0404600F037F90023636300206D
:10073000BDE8F0810E69002EF9D09B070D6808BF57
:100740004B690E6018BF0023AD1B8B600BE02B467E
:100750003246216AA76A4046B847B0F1000CA5EBC3
:100760000C05664406DD002DF1DCE0E70A6C002A8A
:10077000A5DCDCE7B4F90C3043F04003A3814FF073
:10078000FF30BDE8F081626DAFE7D8F80010B4F932
:100790000C301D29F0D80C4ACA40D507ECD5226987
:1007A000226000226260DA04B4D50029B1D0B1E73A
:1007B000D8F80030002B94D01D2B01D0162BD9D1A6
:1007C000C8F80060B3E700BF010040200B69B3B177
:1007D00010B5044682B008B1036A5BB1B1F90C30C0
:1007E00013B9002002B010BD204602B0BDE8104091
:1007F000FFF75ABF0191FFF72FFF0199EEE70020A5
:10080000704700BFB8B138B50D4A03691568044692
:100810002BB10DB12B6A53B1B4F90C300BB90020D8
:1008200038BD21462846BDE83840FFF73DBF284681
:10083000FFF712FFF0E7034A0349044800F00AB942
:100840002C0100201C010020CD07000830010020F1
:1008500070B5104E336805460C46B3B121462846A4
:1008600000F074F9431C0CD0C41C24F00304A04213
:1008700005D0211A284600F069F9013001D0204640
:1008800070BD4FF0FF34204670BD194600F05EF990
:100890003060E3E7F00200202DE9F843CD1C25F09D
:1008A000030508350C2D38BF0C25002D064618DB36
:1008B000A94216D8DFF8DC8000F044F9D8F804200B
:1008C000A2B1144603E0636822467BB11C4623684C
:1008D0005B1BF8D40B2B1FD89442636854D0536031
:1008E0000CE00C2333600020BDE8F8832946304635
:1008F000FFF7AEFF431C044619D00560304600F0F8
:1009000023F904F10B00231D20F00700C21A1CBFBD
:100910001B1AA350BDE8F88361199442256014BFE7
:100920005160C8F80410635163684B60E6E7D8F87B
:1009300004701FB33C467F68002FFBD12368394603
:10094000304604EB030900F001F9814516D1236814
:10095000ED1A29463046FFF77BFF01300ED02368A1
:10096000D8F804202B442360536883B1A34203D0FA
:100970001A465B689C42FBD10023B0E70C2333602E
:10098000304600F0E1F8AEE7C8F80430B6E7C8F842
:100990000470B3E7F0020020002950D038B551F8B8
:1009A000043C0C1F002BB8BFE418054600F0CAF841
:1009B000274A13682BB1A3420CD9216860188342DF
:1009C0002CD0636028461460BDE8384000F0BCB805
:1009D000A3420FD81A465B68002BF9D11168501852
:1009E000844217D02CD3636054602846BDE8384059
:1009F00000F0AAB811685018A04214D020D821687D
:100A000060188342EFD118685B680844C4E90003AA
:100A10005460EAE723680B441360E6E718685B68F4
:100A200008442060CDE720680144501883421160DB
:100A3000DBD1D3E900040144C2E90014D5E77047D3
:100A40000C232B602846BDE8384000F07DB800BF7D
:100A5000F40200202DE9F8430746884616464FF079
:100A60000009D6E90154013D10D4A389012B08D90E
:100A7000B4F90E3001332146384602D0C04749EA66
:100A80000009013D6B1C04F16804EED13668002EAC
:100A9000E7D14846BDE8F883F0B5264C256883B019
:100AA00006460F4605B36C681F2C3FDCA6B1D5F88F
:100AB000880048B3D0F8001140F824204FF0010C12
:100AC0000CFA04FC00EB84024CEA0101022EC0F88F
:100AD0000011C2F8803010D0A31C01346C6045F8BE
:100AE0002370002003B0F0BD13481449216010B1F9
:100AF0000068C1F88800114DD5E7D0F8043143EA09
:100B00000C03C0F80431E7E70D49CDE9002369B1D2
:100B10004FF48470AFF3008040B10021C0E9401170
:100B2000DDE900236C68C5F88800C5E74FF0FF30A9
:100B3000D8E700BF8403002000000000F802002076
:100B400000000000704700BF704700BF38B5074D78
:100B50000022044608462A6000F042FB431C00D0F5
:100B600038BD2B68002BFBD0236038BD88030020E4
:100B700010B50C46B1F90E1000F0B8F8002803DBF0
:100B8000636D0344636510BDA38923F48053A3817F
:100B900010BD00BF002070472DE9F0410C46B1F9AF
:100BA0000C101F46CB05054616460BD421F4805188
:100BB000A1813B46B4F90E1032462846BDE8F0410B
:100BC00000F02AB9B4F90E100223002200F00EF949
:100BD000B4F90C10EAE700BF10B50C46B1F90E10DD
:100BE00000F004F9B4F90C30421C0EBF23F480531A
:100BF00043F480536065A38110BD00BFB1F90E10AE
:100C000000F000B838B5074D0022044608462A60B7
:100C100000F09AFA431C00D038BD2B68002BFBD0A3
:100C2000236038BD880300202DE9F04FDFF8B8902D
:100C3000D9F8006083B0002E34D0884601907568E2
:100C4000D6F888706C1E2DD4013506EB850507F1AA
:100C5000800BB8F1000F28D173682A68013BA342CA
:100C600016BF002374602B60BAB1D6F804A06FB32E
:100C7000D7F800110123A3400B4227D0D7F8040175
:100C800057F8241003422BD1019890477368D9F884
:100C90000020534520D1B2421ED1013C631CA5F176
:100CA0000405D6D103B0BDE8F08F57B15BF824300E
:100CB0004345D1D0013C621CA5F10405F2D0002FC0
:100CC000F4D1013CEED3013CFBD2EBE790477368D3
:100CD000D9F800205345DED0002AE3D01646AEE70F
:100CE00008469047D2E700BF8403002038B50C4681
:100CF000084D8446114620461A4600232B60644660
:100D000000F0EEF8431C00D038BD2B68002BFBD060
:100D1000236038BD88030020334B1B68834261D0B9
:100D2000C26970B50546002A53D0D16891B100263A
:100D30008C5944B1214624682846FFF72DFE002C2B
:100D4000F8D1EB69D9680436802EF1D12846FFF737
:100D500023FEEA69116819B12846FFF71DFEEA690A
:100D60009468002C3AD0214624682846FFF714FEE8
:100D7000002CF8D1696911B12846FFF70DFEEA6928
:100D80001AB111462846FFF707FE296B11B1284614
:100D9000FFF702FE696B11B12846FFF7FDFDA96B55
:100DA00011B12846FFF7F8FDA96C11B12846FFF7ED
:100DB000F3FD696C11B12846FFF7EEFDE96A11B148
:100DC0002846FFF7E9FD2B6A3BB12846BDE8704095
:100DD000184741690029CFD1D7E770BD696900295B
:100DE000CAD1CEE7704700BF2C01002038B50C46B1
:100DF000084D8446114620461A4600232B6064465F
:100E000000F012F9431C00D038BD2B68002BFBD03A
:100E1000236038BD8803002038B50C46084D844651
:100E2000114620461A4600232B60644600F01CF948
:100E3000431C00D038BD2B68002BFBD0236038BD8D
:100E400088030020014608B5024A4FF0FF3000F049
:100E500003F800BF2600020000B583B0CDE90021F1
:100E600000F040FB00280CBF1824202400F03AFBBF
:100E700020B16D4620462946ABBE0446009D204663
:100E80002946ABBE044600BF062908B502D0034A76
:100E9000FFF7E2FF024AFFF7DFFF00BF2600020074
:100EA00023000200F0B585B0CDE9010103920624CC
:100EB00001AD20462946ABBE0446631C02D0204645
:100EC00005B0F0BD07F068FF132605460027304641
:100ED0003946ABBE064620462E6005B0F0BD00BFC9
:100EE0002DE9F0411F4B1B6884B005460F461446A0
:100EF0000BB11A6AE2B1132D1FD81B4E56F83530CC
:100F00005A1C1AD0CDE90137039406270DF10408C5
:100F100038464146ABBE07467B1C13D006EBC503E3
:100F2000E41B5A68204622445A6004B0BDE8F081B0
:100F30001846FFF791FB132DDFD907F02DFF09238A
:100F4000036009E007F028FF132504460026284621
:100F50003146ABBE054625604FF0FF3004B0BDE81A
:100F6000F08100BF2C0100208C0300202DE9F0410E
:100F70002B4B1B6882B005460C46164613B11A6A05
:100F8000002A43D0132D46D8264F57F83530591C28
:100F900041D0022E28D8012E21D0022E12D0E846B0
:100FA000CDE900340A2630464146ABBE0646731CE6
:100FB0001FD0002E27DB07EBC5077C60204602B060
:100FC000BDE8F08100930C26E84630464146ABBEB2
:100FD0000646721C0DD057F835303444E0E707EB75
:100FE000C5025268A418DAD507F0D6FE16230360AE
:100FF00009E007F0D1FE13250446002628463146B5
:10100000ABBE054625604FF0FF34D7E71846FFF723
:1010100023FB132DB8D907F0BFFE09230360F2E7C5
:101020002C0100208C030020FFF7A0BFF0B585B095
:10103000CDE901010392052401AD20462946ABBE4E
:101040000446631C02D0204605B0F0BD07F0A4FEA4
:1010500013260546002730463946ABBE06462046D5
:101060002E6005B0F0BD00BF2DE9F041264B1B6896
:1010700084B006460C4615460BB11A6AFAB1132E17
:1010800022D8224F57F836305A1C1DD0CDE90134F2
:10109000039505240DF1040820464146ABBE0446E5
:1010A000631C16D0002C1EDB07EBC603281B5A68F6
:1010B000AC4202445A6019D004B0BDE8F081184631
:1010C000FFF7CAFA132EDCD907F066FE0923036086
:1010D00009E007F061FE1325044600262846314644
:1010E000ABBE054625604FF0FF30E5E707F054FE44
:1010F00013260546002430462146ABBE0646204650
:101100002E6004B0BDE8F0812C0100208C0300208B
:10111000F0B583B00224019001AD20462946ABBE54
:101120000446631C02D0204603B0F0BD07F034FE35
:1011300013260546002730463946ABBE06462046F4
:101140002E6003B0F0BD00BFF0B5224B1B6883B02A
:1011500005460BB11A6A2AB3132D28D81E4E56F82D
:1011600035305A1C23D06A1E012A03D8B16832696F
:10117000914210D00193022401AF20463946ABBE04
:101180000446631C204617D01CB94FF0FF3346F8C5
:10119000353003B0F0BD4FF0FF33002046F8353056
:1011A00003B0F0BD1846FFF757FA132DD6D907F054
:1011B000F3FD0923036009E007F0EEFD1325044663
:1011C000002628463146ABBE054625604FF0FF306D
:1011D000DFE700BF2C0100208C03002001207047B6
:1011E0000F4A0346D2F8A00010B5A0B103446946E7
:1011F0008B4209D80B490C4C0968A14201D08B42A3
:1012000002D8C2F8A03010BD07F0C6FD0C23036061
:101210004FF0FF3010BD0548C2F8A000E6E700BF60
:101220008C0300207C010020ADDEFECAC04A0120F4
:101230001C4B1B6870B505460C460BB11A6ACAB147
:10124000132D1CD8184B53F83520013217D0626883
:101250004FF4806142F400526260A1640C2603EBFB
:10126000C50530462946ABBE05466B1C0CD0256132
:10127000002070BD1846FFF7EFF9132DE2D907F0F3
:101280008BFD0923036009E007F086FD1325044662
:10129000002628463146ABBE054625604FF0FF309C
:1012A00070BD00BF2C0100208C0300200B4610B540
:1012B0000021044658221846FFF766F801462046EA
:1012C000BDE81040FFF7B4BF38B50C4605465822BC
:1012D00000212046FFF758F82846002100F012F8B8
:1012E000431C05460CD0636843F401432146636008
:1012F000FFF79EFF04462846FFF726FF204638BD2D
:101300000446FBE72DE9F0432F4D97B080460E468B
:10131000002402E00134142C50D055F8343001334D
:10132000F8D106F42063B3F5206FE94639D0C6F34F
:101330000047B20740F2016348BF47F002071E4270
:1013400018BF47F00407330748BF27F0040740469B
:1013500048BF47F00807CDF8008007F0B1FC012630
:10136000CDE9017030464946ABBE0646002E09DB8A
:1013700005EBC403002245F834605A60204617B0DC
:10138000BDE8F08307F008FD132504460027284632
:101390003946ABBE054625603446204617B0BDE849
:1013A000F08349464046FFF78FFF0130BFD007F07A
:1013B000F3FC112303604FF0FF34DFE707F0ECFC90
:1013C00018230360F7E700BF8C0300200EB400B5BC
:1013D0000199FFF797FF5DF804EB03B0704700BF7A
:1013E0002DE9F043074683B03B4888460021164666
:1013F000FFF788FF0021044632463846FEF7C4FF57
:10140000611C58D0354B186810B1036A002B55D0B9
:10141000132C40D8324B53F8342001323BD003EB2D
:10142000C4090C2528464946ABBE05466A1C35D082
:10143000032D3DDD033DB5423ADD04220DEB0201F3
:101440002046FFF74DFD032832DD9DF80430532B75
:101450002ED19DF80530482B2AD19DF80630462B19
:1014600026D19DF80730422B22D101224146204649
:10147000FFF77CFD00281BDB324639462046FFF78C
:101480002FFD05462046FFF75FFE6B1C19D028464E
:1014900003B0BDE8F0834FF00009C2E707F07CFC21
:1014A00013260546002730463946ABBE06462E6059
:1014B0002046FFF749FE4FF0FF35E8E7FFF7CCF88D
:1014C000A6E707F069FC1326044600273046394694
:1014D000ABBE06462660DAE7507A01082C010020F0
:1014E0008C03002010B50E4C6068002882B001DB30
:1014F00002B010BD0021012201A8C4E90112FFF7CA
:101500006FFF002809DD9DF8043003F0010003F0AF
:101510000203C4E9010302B010BD606802B010BD4F
:101520007C01002010B50E4CA068002882B001DBC1
:1015300002B010BD0021012201A8C4E90112FFF789
:101540004FFF002809DD9DF8040000F0010300F0C2
:101550000200C4E9013002B010BDA06802B010BDA5
:101560007C0100202DE9F04784B0444F019703230C
:10157000002403934FF0010801AE02944046314627
:10158000ABBE80463E4D2346C5F8A4804FF0FF32E7
:1015900045F833200133142BFAD13A4CA368002BC1
:1015A00056DB83B9D5F8A820013209BFD5F8A420AD
:1015B000D5F8A420D5F8AC10C5F8A810C5E90023CB
:1015C00004B0BDE8F0874FF00309042301974FF002
:1015D0000108CDF80C90029340463146ABBE8246DE
:1015E00008230197C5F8ACA0CDF80C9002934046B3
:1015F0003146ABBE0646C5F8A860013608BFD5F82F
:10160000AC20A36808BFC5F8A8200021D5F8A42005
:101610008B42C5E900210FDA01226846C4E90112B4
:10162000FFF7DEFE002825DD9DF8003003F0010203
:1016300003F00203C4E90123002BC1D0D5E92A211C
:101640000023C5E90213C5E9042304B0BDE8F0870F
:10165000002101226846C4E90112FFF7C1FE0028FB
:101660000ADD9DF8003003F0010203F0020362601E
:10167000A36096E7A368DFE7A36892E7687A0108AA
:101680008C0300207C01002008B507F085FB58235F
:1016900003604FF0FF3008BDF0B583B00E2400901A
:1016A00007F00EFB01906D4620462946ABBE04466E
:1016B000631C18BF002402D0204603B0F0BD07F021
:1016C0006BFB13260546002730463946ABBE06465F
:1016D00020462E6003B0F0BDF0B50D4650B1044673
:1016E0001126002730463946ABBE0646F317C4E93B
:1016F0000063A76015B10023C5E900330020F0BDE9
:1017000030B51024002520462946ABBE04462046AD
:1017100030BD00BF70B5044610250026284631466E
:10172000ABBE05461CB1C4E90056C4E902662846B2
:1017300070BD00BF164B1B6870B505460BB11A6A29
:10174000E2B1132D1FD8134B53F8352001321AD0B4
:10175000092403EBC50520462946ABBE0446012CEF
:1017600020460AD007F018FB132504460026284619
:101770003146ABBE05462560002070BD1846FEF719
:101780006BFF132DDFD907F007FB09230360F3E795
:101790002C0100208C030020F0B583B0C0B1009074
:1017A00007F08EFA122401906D4620462946ABBE02
:1017B0000446631C25460FD0FF2C06D82CB16D00C3
:1017C000C5F3072301D0A342F9D1284603B0F0BDE9
:1017D0000125284603B0F0BD07F0DEFA13260446C3
:1017E000002730463946ABBE06462660EDE700BF0F
:1017F000F0B585B00C46009007F062FA034620462B
:10180000CDE9013407F05CFA0F2403906D462046C1
:101810002946ABBE0446631C06D0003C18BF012419
:101820006442204605B0F0BD07F0B6FA132605461F
:10183000002730463946ABBE064620462E6005B02E
:10184000F0BD00BF01460068A0B1024601E03A2B9E
:1018500005D012F8013B1F2BF9D80020704790F8F3
:1018600000C0ACF1300C5FFA8CF3092B02D8831C5A
:101870009A4202D04FF0FF30704760460128F9DCF1
:101880000A60704738B50D4640B1036804462BB175
:101890001A781AB18188DA88914203D0092000238E
:1018A0002B6038BD587803F0C1FC10F00100F5D171
:1018B0002368F5E738B5C3780BB9002038BD00F1CF
:1018C0003405026B044601234078294603F0AAFD43
:1018D00080B9216B636AE269E070CB1A9342ECD263
:1018E000A378022BE9D10A4460780123294603F04A
:1018F00099FDE2E7012038BD2DE9F0470024076893
:101900008C758369002B5ED0C36A013306460D4691
:101910005BD0FA681088C8B14FF00208A1462CB914
:1019200000F520539BB2B3F5006F63D34FF4697198
:1019300040EA044002F0C8FBFF28C9F1FF0A46D97B
:10194000BAF1010F58D84FF0000A0CB14FF0000A5D
:10195000AA4400238AF81630AF7DF6690024721E6F
:1019600006F10A014FF02E0C04E0281901344372ED
:101970008A4212D0104612F8013F202BA0F1070036
:10198000F6D0052B08BFE523B042EED10B2CECD8E6
:101990002819013480F809C0E7E72B1900225A7290
:1019A0004FB994BB3F23AB7501242C440023A3758E
:1019B000337B03B96B72F37A2B72F3692B60F38A72
:1019C000EB80338BAB80BDE8F0872746C5E7D0B10D
:1019D000BAF1000FB9D005EB090398750123FA6835
:1019E0009944002432F8080008F10208002896D132
:1019F000CA46AAE70446F5E705EB0902030A937510
:101A0000D0750223EBE782469FE76B7A3C46002BBA
:101A1000CBD005F10902A3F14101192908D8092CFD
:101A2000307B34BF0821102108421CBF2033DBB2B9
:101A3000537312F8013F0134002BECD1B5E700BF1E
:101A4000F8B505460C46FFF735FF38BBAB69A11E5C
:101A5000023B99423BBF6B89EE6A064601FB036677
:101A600005F134072E634FF4007200213846FEF76B
:101A70008BFC6B891C466BB1002402E001349C4254
:101A800008D201236878A219394603F0CBFC6B8990
:101A90000028F3D0E01A18BF0120F8BD0120F8BDDE
:101AA00070B5C37804465BB92378032B23D000229A
:101AB0006078114603F016FD003818BF012070BD94
:101AC00000F13405026B40780123294603F0AAFC9B
:101AD000002835D1216B636AE269E070CB1A93422A
:101AE000E2D2A378022BDFD10A4460780123294691
:101AF00003F098FCD8E72579012DD8D104F13406FC
:101B00004FF4007200213046FEF73EFC0D4A62633E
:101B10002269C4F82022226A60690B4BC4F818328B
:101B20004AF655210132A4F832122B46C4F81C02A1
:101B300022636078314603F075FC00232371B6E719
:101B4000012070BD5252614172724161026B8A4242
:101B500001D10020704770B5C37804460D46407827
:101B600004F134065BB92A460123314603F00CFC2C
:101B700000281CBF4FF0FF350120256370BD0123F5
:101B8000314603F04FFC88B9216B636AE269E0706B
:101B9000CB1A93426078E6D2A378022BE3D10A44B1
:101BA0000123314603F03EFC6078DCE7012070BD84
:101BB0002DE9F84F90F80090B9F1020F04460D4658
:101BC000174644D0B9F1030F2BD0B9F1010F55D10D
:101BD000416A05EB550801EB5821FFF7B7FF0646B0
:101BE000E0B908F1010BEB07C8F3080804F1340A67
:101BF000F9B24FEA5B2245D51AF8083003F00F031B
:101C000043EA01130AF80830616A84F8039011442A
:101C10002046FFF79BFF00284ED006463046BDE821
:101C2000F88F416A01EBD511FFF790FF06460028B7
:101C3000F4D1AD0004F1340205F4FE7501215359CD
:101C400067F31B035351E1703046BDE8F88F416ADA
:101C500001EB1521FFF77AFF06460028DED16D0063
:101C600004F1340305F4FF75C7F307225F552B44D5
:101C700001215A70E1703046BDE8F88F02263046E7
:101C8000BDE8F88F0AF80810616A84F803901144DF
:101C90002046FFF75BFF0028BFD1CBF3080BC7F34B
:101CA00003221AF80B3023F00F03DA441343012206
:101CB0008AF80030E270B1E7CBF3080BDA44C7F3DF
:101CC0000713F4E7012919D9F8B5836999420C463D
:101CD000054611D20378022B21D0032B10D0012B03
:101CE0000AD1416A04EB540701EB5721FFF72EFF9D
:101CF00010B34FF0FF30F8BD0120F8BD0120704750
:101D0000416A01EBD411FFF721FF0028F1D1A400B3
:101D100004F4FE742544686B20F07040F8BD416AFD
:101D200001EB1421FFF712FF0028E2D1630003F456
:101D3000FF732B44988EF8BDC7F30803696A013717
:101D40002B4401EB5721284693F83460FFF7FEFE41
:101D50000028CED1C7F308072F4497F8343046EA5D
:101D60000320E3074CBF0009C0F30B00F8BD00BF20
:101D70000129F8B505680E4628D9AB698B4225D9EB
:101D80000746114622BB284611E0FFF711FFF0B9C4
:101D9000D5E90532911E8B4205D22979013341F0F4
:101DA000010129716B61A2421FD93868264631466C
:101DB000FFF788FF0446002231462846ACB1012CCB
:101DC00004D0631C13D0AB699E42DED30220F8BD61
:101DD000012AFBD09342F9D94FF0FF322846FFF792
:101DE000E7FE0028F3D13868E1E70020F8BD0120C4
:101DF000F8BD00BF2DE9F04107680646884649BB9B
:101E0000D7E90452EDB90AB3BB6901252C4606E0B7
:101E1000012812D0013047D0AC4217D0BB69013441
:101E20009C4202D3012D11D0022430682146FFF7D5
:101E300049FF0028ECD1012C52D801242046BDE8EE
:101E4000F081BB69AB42DED9002ADFD100242046F5
:101E5000BDE8F0813846FFF735FF01280446ECD98C
:101E6000421C21D0BB698342F1D87A69002AEDD0A7
:101E700008F10104A34298BF022430682146FFF70D
:101E800021FF0128D9D0431C0ED0BB691A4600BBE4
:101E900044B3A242D1D94FF0FF3221463846FFF772
:101EA00087FE30B10128C8D14FF0FF342046BDE88D
:101EB000F081B8F1000F17D1D7E90523023B9A4210
:101EC0003C6101D8013A7A613B7943F001033B71EF
:101ED000BDE73D69012D05D99D4228BF454695E7DF
:101EE000BA69D6E7454691E7B8F1010FA5D0BB69BD
:101EF0009845A2D2224641463846FFF759FE0028AF
:101F0000D0D1D9E783692DE9F0470569002B4DD081
:101F10002035B5F5001F49D2C5F308080668044608
:101F2000B8F1000F06D0343646442561E661002042
:101F3000BDE8F0870F4641690133836181B373893E
:101F4000013B13EA5529EED13046FFF7BBFE0128CD
:101F500082462DD9B0F1FF3F2CD0B369834211D80E
:101F600017B361692046FFF745FF824620B3012879
:101F70001ED0B0F1FF3F1DD001463046FFF760FD97
:101F8000C0B9B369C4F814A0023BAAF10201994296
:101F900003D27289F36A01FB0239C4F81890C2E7D0
:101FA0003389B3EB551FBED80023A3610420BFE7DC
:101FB0000220BDE70120BBE70720B9E72DE9F04784
:101FC00004460568A7694FF0FF094E46042005F155
:101FD000340837B32B6B9F4209D02846FFF76AFCC1
:101FE000002854D00023A361BDE8F0872F63E16986
:101FF0000A78002A5BD0CB7AE52A03F03F03A3716D
:1020000005D02E2A03D023F0200008280DD1FF266A
:1020100000212046FFF776FF0028E3D1A769002FB3
:10202000D8D1002843D10020DEE70F2B4CD1500639
:102030003AD5236991F80D90E36202F0BF064B7B1D
:102040004B45E4D14B8B002BE1D10A78284BEF684C
:1020500022F04002013A02EB420002EB800203F15F
:102060000D0E4FF0010C4FF6FF7A07E0FE2ACED896
:1020700027F812008446013273451AD013F8010B79
:10208000085ABCF1000FF1D15045F5D0BFE7687890
:1020900001233A46414603F077F90028A6D04FF0D5
:1020A000FF332B6301209DE7B242B0D1C7E7042084
:1020B00098E70B785B0604D5FE2AA8D8002327F8FA
:1020C0001230013EF6B2A3E76EB901F10B0011F830
:1020D000012BF30143EA560352FA83F38142DEB245
:1020E000F5D14E459FD04FF0FF33E3629BE700BF31
:1020F000E88F0008B1F5001FF8B5076822D2CA06BC
:102100000D461FD1816805610646E9B17B89B5EBB3
:10211000432F4FEA432432D3384607E0012811D930
:10212000BB6983420ED9AC422AD83068FFF7CAFD9A
:10213000431C0146A5EB0405F0D10120F8BD0023A6
:10214000C6E905130220F8BD3B78022B12D83B8963
:10215000B3EB551FF6D9BB6AC6E90513002BF1D0C6
:10216000C5F30802343703EB55231744C6E9063795
:102170000020F8BDBB6A002BE9D01946C6E7BB6951
:10218000023B8A1E9A42DAD27889FB6A02FB00334C
:10219000E2E700BFC16A4B1C2DE9F04705680669FC
:1021A000044630D105F134094FF00108E527D4F891
:1021B00018A02B6B9A45284610D0FFF77BFB20B167
:1021C000042808BF0220BDE8F08768780123524642
:1021D000494603F0D9F880B9C5F830A0E3691F700B
:1021E00085F803802369B3424FF00001204610D2E6
:1021F000FFF788FE0028DAD0E2E74FF0FF332B63C9
:102200000120BDE8F087FFF775FF0028CAD0BDE8C0
:10221000F0870020BDE8F0872DE9F04F002187B05E
:1022200006680546FFF766FF88B94FF0FF374FF0A5
:10223000FF0AEF6206F1340B5446D5F81880336B71
:10224000984509D03046FFF735FB00284BD007B042
:10225000BDE8F08FC6F83080EA691178002967D0B0
:10226000D37AE52903F03F00A87103D01B070CD5F2
:102270000F2827D0EF62FF2400212846FFF742FEF7
:102280000028DAD007B0BDE8F08F0F281AD0002C54
:1022900038D095F82B0010F00100EBD105F12001AA
:1022A00002F10B0C01E0002BE4D112F8013B11F814
:1022B000014B6245A3EB0403F5D1002BDAD107B043
:1022C000BDE8F08F95F82B305B06D5D448062BD5AA
:1022D0002B6992F80DA0EB6201F0BF01537B5345CF
:1022E00028D0FF24C8E7707801234246594603F0FE
:1022F0004BF80028AED04FF0FF330120336307B016
:10230000BDE8F08F02F10B0C1146234611F8010BCA
:10231000DC0144EA530450FA84F46145E3B2F5D198
:102320009A45B6D1002092E78C42D7D0FF24A3E78C
:1023300004208CE7538B002BD3D11478DFF89480E2
:10234000029504F03F04013C04EB440304EB8304D6
:10235000F3680593CDE900A608F10D090120049169
:1023600016461D46CDF80CB010E0FE2C504617D88E
:1023700001F0FAFE834635F8140001F0F5FE8345BE
:1023800004F101040CD15046C1450ED018F8013BB0
:1023900036F803A00028E8D14FF6FF739A45F3D032
:1023A000DDE900A6DDE9025B9BE73246DDF800A02F
:1023B00013780499DDF80CB05B06DDE9016505D5FD
:1023C00020B1059B33F81430002B8AD10139CCB2EF
:1023D00052E700BFE88F00082DE9F04F90F82BC0BE
:1023E0001CF0A00189B040F01B81D0F800A0DAF801
:1023F0000C301A880546002A00F07E8189461A466C
:1024000032F8021F09F101090029F9D105F120066E
:1024100096E807000DF114081CF0010F88E807008A
:1024200058D11CF0020F544600F0E080B44B09F183
:102430000C0800212846A3FB0838FFF75BFE4FEA93
:10244000980808F101088346002840F0D980074623
:1024500007E0B3B15F46FFF755FD8346002840F023
:10246000D880A9692046FFF771FB012183460F44FC
:102470002846BBF1000F40F0CC80EB691B78E52BC0
:10248000E7D1B845E7D1B8F10103019340F0CE8020
:10249000A9695046FFF75AFB8346B8B92022E8697C
:1024A0005946FDF771FFEB6905F12B02013B16F868
:1024B000011B03F8011F9642F9D195F82B30E96909
:1024C00003F0180301220B738AF80320584609B061
:1024D000BDE8F08F40228B4C85F82B200127CDF8EA
:1024E00004C098E80700B446ACE803002CF8022BBF
:1024F000110C052F8CF800106AD91A88002A67D0B1
:102500009C463B46102102F0010000EB4303D80338
:1025100048BF634001394FEA5202F4D13CF8022F20
:10252000002AEFD1C646072001E010465B4603F0C3
:102530000F0C0CF13001392988BF0CF137010F2B3A
:102540000EF8011D00F1FF324FEA131BEDD802F126
:1025500020036B447E2103F8141C1346C2B10023F0
:10256000023812E080290DD901F1200C9F295FFA71
:102570008CFC03F1010102D9BCF11C0F02D883428B
:1025800006D00B460133934202D2F15C2029E9D1F7
:102590001F332B4402F120016944072A98BF11F828
:1025A000140CA3F11E01A1EB05018CBF2020013208
:1025B0000729587003F10103ECD92846FFF72CFED8
:1025C000834638B90137642F1DD0DAF80C3088E71C
:1025D0003B46A7E70428DDF804C07FF477AF1CF082
:1025E000020F2C6885F82BC07FF420AF002128460D
:1025F000FFF780FD4FF00108834600283FF427AF26
:1026000004287FF463AF4FF0070B584609B0BDE8CC
:10261000F08FBBF1040F7FF459AF4FF0070BF4E7D5
:102620004FF0060B584609B0BDE8F08F2969019BB1
:102630002846A1EB4311FFF75DFD834600287FF498
:1026400045AF05F12B01324612F8010B4FEACB13CF
:1026500043EA5B0350FA83F38A425FFA83FBF3D1C8
:102660004FF6FF77A9695046FFF770FA0346024616
:10267000002843D19DF80490EC692349DAF80C80D6
:1026800084F80DB009F1FF3202EB420002EB800248
:102690000F20A4F80B00638301F10C0E01200DE064
:1026A00038F812302354180A01328CF801000BB9A3
:1026B0004FF6FF738E4508D011F8010FBB4204EBB3
:1026C000000CEDD18E452352F6D1BB4202D038F832
:1026D00012300BB949F04009012384F80090002121
:1026E0008AF803302846FFF70DFC024630B9019BFB
:1026F000013B0193B6D1CBE6914687E69346E5E6EA
:102700004FECC44E21100100E88F00082DE9F04F76
:102710000368074685B018460D4611F8013B2F2B7C
:10272000FAD05C2BF8D00023BB602A781F2A40F235
:10273000668106460346D3F80C800024A8F10209FE
:10274000802A05F1010310461CD8002A45D14FF01C
:1027500004091A782F2A1D4603F10103F9D05C2AD7
:10276000F7D04CB108EB440232F8023D202B01D0E7
:102770002E2B3ED1013CF7D1A8F80040062005B031
:10278000BDE8F08F9F2A03D92032D2B21C2A24D868
:102790006B7828883F2BF1D97E2B03D983F08003F7
:1027A0007C2BEBD840BA023580B24FF4697101F04E
:1027B000B5FC0028E2D01F2840F236812F2800F017
:1027C000A0805C2800F09D807F2808D9FF2CD5D000
:1027D00029F8020F01342A78B2E71D46E5E7A74A37
:1027E000222303E012F8013F002BEFD08342F9D1FE
:1027F000C4E74FF0000328F81430B8F80030202B5D
:1028000008EB440140F09E8008F1020300221846C4
:1028100033F802CBBCF1200F924602F10102F6D050
:102820000AF1020A49F003095FFA89F90B4601E04F
:10283000013C03D033F8022D2E2AF9D14FF020337A
:102840007B623B62C7F827300088002800F00581D2
:1028500000212A4608238B460D46202845D02E28E5
:1028600053D09B455CD30B2B00F0D380544550D004
:1028700049F003095FFA89F94BD22946154697F8C2
:102880002020E52A04BF052287F82020082B60D0ED
:1028900001F00C030C2B03D001F00303032B5ED1DA
:1028A00049F002095FFA89F987F82B903846FFF75B
:1028B000B3FC97F82B3000286AD15A073FF55FAF79
:1028C000BB79DB0640F1C5803A693178C2F3080272
:1028D00006F13403134403295A8B04BF9B8A42EA4E
:1028E0000342BA603B682A7825E749F003095FFA9A
:1028F00089F9514638F8110001F1010A0028ACD1DC
:10290000BBE72B464FF0000923E75445EDD10B2BD5
:102910007FD0AD00EDB221460B234FF0080BE9E765
:102920005445F4D07F283BD82B218142DFF850C199
:1029300005D01CF8011F002978D08142F9D1CDF8CB
:1029400004903FE02E2B40464FF0010A7FF46EAF1B
:1029500068E7890001F00C030C2BC9B2A0D009F084
:102960000203002BA0D141F3000303F0100349EA56
:1029700003035FFA83F9490748BF49F0080987F85C
:102980002B903846FFF748FC97F82B30002894D05E
:1029900004287FF4F4AE13F0040F08BF0520EEE620
:1029A00049F00201CDE90232CBB2019301F0DCFB28
:1029B0004FF4697101F088FBFF28DDE902320FD87E
:1029C000002857D1019941F003015FFA81F95F2096
:1029D00007EB0B0C51468CF820000BF1010B89E73B
:1029E000591E8B453BD207EB0B014FEA102CDDF84B
:1029F000049081F820C00BF1010BC0B2E8E78023FE
:102A00000021384687F82B3005B0BDE8F04FFFF7BE
:102A100071BB97F82030E52B2946154626D049F0A2
:102A200003095FFA89F933E72B4690E6A0F14101EB
:102A300089B2192903D845F00205C0B2C8E7A0F150
:102A4000610189B219299CBF203845F00105C0B247
:102A5000BEE7052005B0BDE8F08F01467FE749F0ED
:102A600003095FFA89F951469B4643E7052387F836
:102A70002030D4E7DDF8049056E700BF6C7A0108F7
:102A8000787A010870B54FF0FF360023B142044652
:102A9000C370066331D1B4F832224AF655239A4204
:102AA00029D194F8342002F11803DBB2012B03D9A9
:102AB000EB2A01D0022070BD94F86A30462B07D172
:102AC00094F86B30412B03D194F86C30542B20D008
:102AD00004F1860211498B3400E038B912F8013B49
:102AE00011F8010BA242A3EB0000F6D1003818BF89
:102AF0000120400070BD032070BD0D460A4640789D
:102B0000012304F1340102F03FFC20B126630420CC
:102B100070BD002070BD2563BDE700BF807A01084D
:102B20002DE9F041002384B00B600E461746FEF7F6
:102B300089FE041EC0F2B780DFF8208258F82450C6
:102B4000002D00F0BF8035602B7807F0FE0753B1F1
:102B5000687802F06BFBC30705D417B1470700F193
:102B6000AD80002098E0E0B200232B70687002F086
:102B700065FBC60700F1938017B1440700F19E8002
:102B800000212846FFF77EFF02286CD0042800F0C1
:102B90009B80012898BF00267DD8B5F83F30B3F55B
:102BA000007F78D1B5F84A1001B9A96D95F8442095
:102BB000E961531E012BAA706DD895F841306B81E5
:102BC000002B68D0581E184265D1B5F845402C81BD
:102BD000200760D1B5F8470000B9686DB5F842C06C
:102BE000BCF1000F57D001FB02F20CEB1417174495
:102BF000B84250D3C01B9842B0FBF3FE4BD3544BAA
:102C00009E4548D80CEB06034FF6F57CE645374465
:102C10000EF1020060D840F6F57CE6452E62EF62C8
:102C2000A8616B6252D8B4B31A4400EB400300F0C1
:102C3000010000EB5300012400F2FF10B1EB502F14
:102C4000AA6228D34FF0FF33C5E9043380222A71EA
:102C5000B8F808303F4A2C7001339BB2A8F808300E
:102C6000EB80EA607DE76C4605F5F97305F23220EA
:102C700021461A7902B19A6841F8042B1033834235
:102C8000F7D104F1100754F8046B03207EB9BC425D
:102C9000F9D1042818D00D2004B0BDE8F08103203C
:102CA00004B0BDE8F0810B2004B0BDE8F0813146EE
:102CB0002846FFF7E7FE0128E9D86EE70A2004B0AE
:102CC000BDE8F0810C20E7E70120E5E7002CE2D029
:102CD0001A4440000224AFE76B62B5F85E30EF6241
:102CE0002343A8612E62D6D1830003F2FF132A6E1C
:102CF000AA62B1EB532FCED34FF0FF33C5E90433B3
:102D0000B5F864308022012B2A7101D003249FE79B
:102D1000711C2846FEF71AFF0028F7D1B5F83212C9
:102D200028714AF655229142F0D16A6B0A4B9A42B9
:102D3000ECD103F1FF53D5F8182203F500532033EB
:102D40009A4204BFD5E98732C5E90423DEE700BF14
:102D5000F5FFFF0F48040020525261413C0400205F
:102D600010B584B01446019003A800910391FEF7BA
:102D700069FD002816DB0D4A52F820300BB1002106
:102D80001970019B0BB10021197042F8203014B961
:102D9000204604B010BD002201A96846FFF7C0FE1E
:102DA00004B010BD0B2004B010BD00BF3C040020D7
:102DB0002DE9F04790B0019100287DD002F03F0747
:102DC000164604463A4603A901A8FFF7A9FE0546A0
:102DD00028B100232360284610B0BDE8F087DDF855
:102DE0000C800199CDF8108004A8FFF78FFC80B902
:102DF0009DF93B30002B64DB16F01C0F9DF816305C
:102E00000ED013F0110F5ED1700740F18D800825B0
:102E1000DFE716F01C0F01D0042858D00546D8E78C
:102E2000DA0652D4B00701D5D9074CD4DDF82C907E
:102E3000D8F83030C4E9083998F80030B9F81A6089
:102E4000032B04BFB9F8143046EA0346A660D9F84C
:102E50001C90B8F80630C4F80C90002104F1280A40
:102E60004FF40072C4F80080A38027746174E1619C
:102E700061615046FDF788FABA06ACD5B9F1000F8A
:102E8000A9D0B8F80A30C4F81490B9EB432F4FEA30
:102E9000432705D84EE0431C00F082804F4549D2BD
:102EA00031462068FEF70EFF01280646A9EB070908
:102EB000F1D8A06102258CE70925284610B0BDE8AD
:102EC000F087062585E7072583E7042581E704A821
:102ED000FFF782FA0028A1D1DDF82C9047F008070F
:102EE00098F80030B9F81A60032B04BFB9F8143011
:102EF00046EA034602F064FB202389F80B300023E6
:102F0000A9F81A30C9F80E0098F80020032A08BF63
:102F1000A9F8143000220123C9F81C2088F80330D6
:102F200056BB47F0400783E73107DDF82C907FF56B
:102F30007FAFD5E7C9F30803A661002B3FF44BAF81
:102F4000D8F81830023E023B9E42B3D2B8F80A20AD
:102F5000D8F82C3006FB0232002AABD002EB592203
:102F6000E26198F801005146012302F00DFA0028B1
:102F70003FF431AF01252CE704A83146D8F830A042
:102F8000FEF7F6FE00287FF449AF51464046FEF7B3
:102F9000DDFD013EC8F810600028C2D0054618E7E4
:102FA000A061E7E72DE9F04F1E4685B00023884673
:102FB000336003A905469146FEF764FC00284AD118
:102FC000687C002847D195F810A01AF0010A00F09B
:102FD0008E806969EF687F1A4F4528BF4F46002FE2
:102FE00039D00090C1F30800002840D1DDF80CB0C2
:102FF000BBF80A20013A12EA51222FD0A869DBF867
:1030000018300238023B984222D2BBF80A10DBF893
:103010002C4001FB0044DCB1B7F5007F144442D2E0
:10302000EA69A24265D095F910309BF80100002BA7
:1030300005F1280160DB01232246019102F0A4F989
:103040000199002846D16869EC61C0F3080010E0DE
:1030500002246C74204605B0BDE8F08F00293FD1F2
:10306000A8680128F4D9431C34D0A861C7E705F14A
:1030700028010B18C0F50070B84228BF384608F187
:10308000FF321C1813F8011B02F8011FA342F9D1EB
:1030900033686969034401443F1A336080446961BD
:1030A000A0D10098D7E702EB572088424FEA572972
:1030B00088BFA1EB02099BF801004B46224641461E
:1030C00002F062F930B995F91020002A22DB4FEAAC
:1030D0004920DDE7012350466B7405B0BDE8F08F51
:1030E000A96928680192FEF7EDFD019AB9E707206A
:1030F000B1E705F12801A6E70123019102F092F959
:103100000028E7D12B7C019903F07F032B749BF8F7
:10311000010090E7EA69121B4A45D8D208EB422227
:10312000013A05F1280105F50A7411F8013B02F88E
:10313000013FA142F9D1CAE72DE9F04F994685B088
:1031400000230C46C9F8003003A905469046FEF757
:1031500099FB0746002850D16F7C002F4DD12A7C67
:10316000910740F1BF806B6913EB080F28BF6FEA2E
:103170000308B8F1000F6ED0C3F30802002A40D153
:10318000DDF80CA0BAF80A60013E16EA53260FD10A
:10319000002B40F09F80A868002800F08D80012857
:1031A00029D0431C00F09080AB68A861002B70D040
:1031B00095F91030002B71DBAB69DAF81820023B6F
:1031C000023A934217D2BAF80A10DAF82C2001FB1F
:1031D000032282B1B8F5007F324440D2E9696B69BD
:1031E000914202D0E96899427ED805F12806EA6149
:1031F000C3F3080207E002276F74384605B0BDE844
:10320000F08F05F12806C2F5007BC34502F1FF32BD
:1032100028BFC34606EB020C214604EB0B0211F853
:10322000013B0CF8013F9142F9D12B7C63F07F0305
:103230002B741446D9F800206B695A44C9F8002051
:10324000EA685B449A4238BF1A46B8EB0B086B61D8
:10325000EA6091D12A7C42F040022A74CDE706EB65
:1032600058238B424FEA582B88BFA1EB060B9AF8E4
:10327000010001925B46214602F0D4F820BBEB69C5
:10328000019A9B1A5B453DD304EB4B224FEA4B2B33
:10329000CFE795F91030A860002B8DDAEA699AF82B
:1032A0000100012305F1280102F0BCF860B92B7C74
:1032B00003F07F032B747FE731462846FEF79AFD23
:1032C00000287FF46CAFC5E7012738466F7405B05E
:1032D000BDE8F08FA9692846FEF78CFD00287FF431
:1032E0005EAFB7E7072788E705F128069AF80100DF
:1032F00001920123314602F047F80028E4D16B69BE
:10330000019A74E704EB432305F1270203F50070EB
:1033100013F8011B02F8011F8342F9D12B7C03F043
:103320007F032B74B0E700BF4368002B1EDB70B532
:103330005E1C03443B2E8568197382B0044604DC8E
:103340000135C4E9016502B070BD014601AB3246EA
:1033500051F80C0BFFF7F0FE019B9E1B18BF4FF0BE
:10336000FF360135C4E9016502B070BD704700BF8A
:1033700000283ED0036870B504462BB11A781AB104
:103380008188DA88914201D0092070BD587801F017
:103390004DFFC207F8D4237C13F04000F5D01B0684
:1033A000266828D402F00CF9216A05463046FEF75B
:1033B000CDFB0028E9D1636ADA7A42F02002DA72A2
:1033C000A26821689A76C2F30720D8760978032983
:1033D0001ED0E268DA610022C3F816505A82012337
:1033E000F3703046FEF75CFB237C23F0400323742C
:1033F00070BD09207047E2697078012304F128014B
:1034000002F010F848B9237C03F07F032374C9E766
:10341000120C1A75120A5A75DBE7012070BD00BF45
:1034200010B582B00446FFF7A3FF08B102B010BD8B
:1034300001A92046FEF726FA0028F7D1206002B045
:1034400010BD00BF2DE9F04383B00E4601A904462C
:10345000FEF718FA074660B9677C57B9E2686369F6
:10346000B24203D2217C880707D41646002262614B
:1034700026B9384603B0BDE8F0836761DDF8048003
:10348000B8F80A904FEA49290BBBA5686DB950E01E
:10349000FEF7B0FC054600287ED06B1C46D0012DFF
:1034A0004ED9D8F81830AB424AD96369A561B14505
:1034B0005CD2227C4B449207294620466361A6EBEE
:1034C0000906E5D42068FEF7FDFB0546E5E7013B6C
:1034D000721EB3FBF9F1B2FBF9F28A42D5D3C9F1FE
:1034E00000021340A5696361F61A002DDFD1E2687E
:1034F0009A4204D2227CE36042F040022274C3F379
:103500000803002BB5D0E269AA42B2D094F910307A
:1035100098F80100002B04F128061ADB314601233C
:103520002A4601F031FF08B9E561A2E70127677477
:103530009FE729462046FEF75DFC0128054602D19B
:103540000227677495E7411CF0D06369A060A06111
:10355000CBE70123314601F065FF0028E6D1237C4B
:1035600003F07F03237498F80100D7E73344C6F3D0
:103570000802636192B1D8F81820023D023A9542E0
:10358000DED2B8F80A10D8F82C2005FB0125002D52
:10359000D6D005EB5625AAE76369A8E71546A6E746
:1035A00030B585B00191002830D00446002203A92F
:1035B00001A8FFF7B5FA18B10023236005B030BDAC
:1035C000039D019925602046FFF7A0F8D0B994F932
:1035D0002B30002B0BDBA379DB0615D52978E269AC
:1035E0000329538B04BF928A43EA0243A360EB880A
:1035F000A38000212046FEF77DFD042804D000288A
:10360000DCD0D9E70428D7D10520D5E7092005B0BB
:1036100030BD00BF98B1036810B504462BB11A78CD
:103620001AB18188DA88914201D0092010BD5878FA
:1036300001F0FCFD10F00100F7D1206010BD092061
:10364000704700BF20B3036870B5044633B11A78E1
:1036500022B1DA880D468188914201D0092070BDDF
:10366000587801F0E3FDC307F8D49DB12046FEF77A
:10367000A5FC10F0FB06F2D129462046FEF73CF9E6
:1036800031462046FEF73EFC042808BF002070BDEE
:103690000920704729462046BDE87040FEF72ABD44
:1036A00030B58FB00D460190002202A901A8FFF7A6
:1036B00037FA044610B120460FB030BD019902A878
:1036C000FFF724F804460028F5D19DF93330002B8C
:1036D00006DB002DEFD0294602A8FEF70DF9EAE738
:1036E0000624E8E72DE9F04784B0884601901446A7
:1036F00003A9002201A8FFF713FA074640B9039D6A
:103700002560D5E90536B21E934205D8C8F80030C9
:10371000384604B0BDE8F0872B78012B1ED0696ACB
:1037200004468146ACB3022B05EB04022BD0526B4E
:1037300032F0704208BF09F101090434013EC4F3BC
:103740000804EFD1C8F800902B79C5F8149043F025
:10375000010338462B7104B0BDE8F087022481468E
:1037600007E0012820D008B909F10109AB69A3429B
:10377000E8D921462846FEF7A5FA431C04F10104C6
:10378000EFD10127DEE7928E0AB909F1010902346F
:10379000D4E7284601F1010AFEF7D8F910B92B78D1
:1037A0005146C0E70746CDE70227CBE770B540B1E9
:1037B000036804462BB11A781AB18188DA889142DD
:1037C00002D00925284670BD587801F02FFDC007AA
:1037D000F7D4657C002DF5D1237C990722D5636948
:1037E000E26826689342EDD2F3B9A1682A462046E2
:1037F000FEF7BEFAA5606369E360237C43F04003F3
:10380000237400283AD11B06DCD5E26970780123C5
:1038100004F1280101F006FE30BB237C03F07F0396
:103820002374CFE70725CDE7A1693046FEF74AFAB2
:10383000421C13D0012808D0B369834217D901462E
:10384000A2692046FEF794FAD5E7237C6269E2601C
:1038500043F04003022523746574B3E7237C626957
:10386000E26043F04003237401256574AAE7237CDA
:103870006269E26043F040032374C4E7054665745F
:10388000A0E700BF30B59DB00222019003A901A8B6
:10389000FFF746F908B11DB030BD039C01990494AF
:1038A00004A8FEF733FF0028F5D19DF93B30002B2B
:1038B00017DB9DF81630DA0724D421780B9A0329F8
:1038C000558B04BF928A45EA0245DB060BD404A857
:1038D000FEF760FC0028DED1B5B92046FEF7E0F81F
:1038E000D9E70620D7E7002110A810941295FEF71B
:1038F00001FC0028CFD110A8FEF760FB10B104280E
:10390000C9D1E4E70720C6E70246294604A8FEF726
:103910002FFA0028BFD1E0E72DE9F04790B002224E
:10392000019003A901A8FFF7FBF8044618B120464F
:1039300010B0BDE8F087039E01990496054604A8DF
:10394000FEF7E4FE0446B8B10428F0D1294604A8E5
:10395000FEF750FA73895B020546079388B1012888
:103960007ED0431C11D101F02BFE012400222946F8
:1039700004A8FEF7FDF9DAE70824204610B0BDE8F8
:10398000F087072401F01CFEF0E73046FDF792FFB8
:10399000044601F015FE0746002CE7D129463046C3
:1039A000FEF74EF804460028E0D13078C6F84A7099
:1039B0004FF020327263B2632E21C6F83B205FFACB
:1039C00085F81022C5F30729032806F1340386F889
:1039D000341086F83F2086F84E8086F84F9041D00C
:1039E0005868D3F808C0D3F80CE0746B7465C6F857
:1039F00060E0B065C6F85CC0069AD3F818C01C69D0
:103A00005869D3F81CE0C6F86CC086F86E20C2F383
:103A10000722C6F870E07466B06686F8551086F81E
:103A20006F200123F37004A8FEF7D6FC044600289B
:103A30009CD10B9BC3F8167083F81A8083F81B90F7
:103A40003278032A03D12D0C2A0A1D755A751021CC
:103A50000122D9723046F270FEF722F8044666E77A
:103A600002248FE725FA02F286F84820120A86F827
:103A70004920D3F804E0D3F808C0D3F80CA0069A84
:103A8000746B7465C6F860A0C6F858E0C6F85CC0F0
:103A9000D3F814E0D3F818C01C69D3F81CA0C6F8FA
:103AA00068E0100CC6F86CC086F8680086F86E20D6
:103AB000000AC2F30722C6F870A0746686F8551093
:103AC00086F86F2086F86900ABE700BF30B5A5B077
:103AD000019068460091FDF7B5FE022203A901A8F6
:103AE000FFF71EF808B125B030BD039C01990C9476
:103AF0000CA8FEF70BFE0028F5D19DF85B3013F003
:103B0000A00F76D1139D28686968AA68EB680DF14B
:103B1000100CACE80F0028696969AA69EB69ACE888
:103B20000F00E646BEE80F000DF1600CACE80F0098
:103B3000BEE80F00ACE80F009EE80F008CE80F0015
:103B4000009918A8FEF7E2FD002854D00428CAD135
:103B500018A8FEF741FC0028C5D11F9BDDF81D20E9
:103B6000C3F80D20DDF82120C3F81120DDF8252051
:103B7000C3F81520BDF82D20DDF82910A3F81D206D
:103B80009DF81B20C3F819109DF82F10D977D10686
:103B900058BF42F020020121DA72E170DA7AD206CF
:103BA0001DD51A9D0E9AAA4219D021785A8B032945
:103BB00004BF9B8A42EA0342A369023A023B9A424B
:103BC00024D26389E16A02FB0311F9B12046FDF7B3
:103BD000BDFF002887D194F855302E2B18D00CA8A3
:103BE000FEF7D8FA00287FF47EAF2046FDF758FF95
:103BF00079E7062077E71A9A0E9B9A4201D00820AF
:103C000071E71C9A109B9A42F9D1A1E702206AE75A
:103C1000227884F86E50C5F30723032A84F86F30A6
:103C200005D12D0C2B0A84F8685084F869300123E3
:103C3000E370D4E72DE9F041804682B017464E1E6E
:103C4000054600240CE0FFF7ADF9019B012B0ED1D6
:103C50009DF8003005F8013B0A2B04F1010411D056
:103C6000B44201AB4FF0010269463846EBDB00235A
:103C70002B701CB1404602B0BDE8F081204602B076
:103C8000BDE8F08100232B70F4E700BF30B595B09C
:103C9000482205460C4602A80021FCF775FB294680
:103CA00001A80194FFF740FB029A002A0CDB01985F
:103CB0006B4604A9FFF740FA30B9029A009B9A427A
:103CC00002D1039815B030BD4FF0FF3015B030BDB4
:103CD00030B5054695B00C464822002102A8FCF7F5
:103CE00053FB2B780194002B34D0002106E00134E3
:103CF000CDE90224114615F8013FBBB101F1500294
:103D000000290DEB020001F10102F4DB3B29039CC9
:103D100000F8403CEBD101986B4604A9FFF70CFA80
:103D2000009A3C3A18BF4FF0FF32E0E700290DDB64
:103D30000A4601986B4604A9FFF7FEF930B9029ACA
:103D4000009B9A4202D1039815B030BD4FF0FF306E
:103D500015B030BD1946EBE70EB42DE9F04F9EB01B
:103D600027AD074655F8046B3446002148220CA8BD
:103D7000FCF70AFB14F8011B0B970195002941D0B1
:103D800003AF252940F016817178302900F02B818E
:103D90002D2900F02D8102364FF000082A2940F02D
:103DA0000E81019A16F8011B1568131D019301F08D
:103DB000DF034C2B04BF16F8011B48F0040809B3BD
:103DC000A1F16103192B9ABFA1F12003DBB20B46CD
:103DD000A3F14202162A0DD8DFE802F0534B2B0C58
:103DE0000C0C0C0C0C0C0C0C0C3F0C0C0CBB0C2B12
:103DF0000C0C5F000BA8FFF797FA344614F8011B70
:103E00000029BED10C9A002AC0F249810B9802AB5E
:103E10000EA9FFF791F9002840F041810C9A029B0E
:103E20009A4240F03C810D981EB0BDE8F04F03B0BF
:103E30007047019A104618F0040F50F8044B40F0F8
:103E4000EA80442B40F03A81002C01902246C0F2D7
:103E5000EA800A204FF000092AE018F0040F00F071
:103E6000D780019B53F8042B019308204FF00009E1
:103E70001EE0019B0BA81A1D19780192FFF754FA56
:103E8000BBE718F0040F00F0C080019B53F8042B2F
:103E9000019302204FF000090AE018F0040F40F0EF
:103EA000AC80019A1020131D126801934FF0000995
:103EB00078290CBF4FF0270A4FF0070A39464FF018
:103EC000000C03E0202C00F0B580A446B2FBF0FB10
:103ED00000FB1B24E3B2092C88BF5344964688BFDD
:103EE000DBB23033864501F8013B5A460CF1010440
:103EF000E8D2B9F1000F08D004F178030DEB030408
:103F00002D2304F86C3C0CF1020418F0010F0CBFD7
:103F10004FF020094FF0300918F0020F00F08D80AB
:103F2000A2460DF12C083C4414F8011D4046FFF751
:103F3000FBF9BC42F8D155450AF101047FF65DAFAB
:103F400049464046FFF7F0F9A54204F10104F7D1D4
:103F500053E7019AD2F800A09AF80010043208F052
:103F600002030192002900F0A18052464FF000099F
:103F700012F8010FCC4609F101090028F8D10CF123
:103F80000204002B6AD00DF12C084046FFF7CCF953
:103F90001AF8011F0029F8D1A945BFF42EAF0DF181
:103FA0002C0820214046FFF7BFF9A54204F1010487
:103FB000F7D822E70BA8FFF7B7F926461DE7A1F1CE
:103FC0003003092B4FF000053FF6F1AE05EB8505F8
:103FD00001EB450516F8011BA1F13003092BA5F1F2
:103FE0003005F3D9E3E6B1784FF001080336D5E6A2
:103FF000B1784FF002080336D0E6019B53F8042B4A
:10400000019310204FF0000952E7019A02204AE77D
:10401000019A082047E7442B019022467FF419AF0C
:10402000002CBFF616AF624248F008080A204FF095
:1040300008093DE74FF01F0C5BE7AC4204F1010BB0
:1040400029D205F1010A0DF12C0849464046FFF737
:104050006BF95D450BF1010BF7D164E74D452FD9A5
:10406000A1460DF12C0820214046FFF75DF94D4592
:1040700009F10109F7D8A5EB0409AC4288BF4FF05C
:1040800000099AF800100134A14409F10104002943
:104090007FF47BAF80E7DA460DF12C0843E74FF061
:1040A000FF301EB0BDE8F04F03B0704713B1894632
:1040B000012471E70124002DD2D19EE60A20F2E608
:1040C000A1460CF103045EE77F2801D880B2704757
:1040D000B0F5803F02D2B1F5697F01D00020704772
:1040E00010B50C4C1FFA80FE41F6DD4C002210206A
:1040F000ACEB020302EB530334F82310714505D0F7
:1041000034BF1A469C460138F2D110BD024A32F83B
:10411000230010BD20060108220601087F2804D9CB
:10412000B1F5697F02D000207047704710B50C4C84
:1041300041F6DD4E00211022AEEB010301EB5303EB
:1041400034F823C0844506D034BF19469E46013A50
:10415000F2D1104610BD034A32F8230010BD00BF53
:10416000A8920008AA920008B0F5803F1FD2264A04
:1041700030B502F1BC0384B2B4F5805F28BF1346AA
:1041800004330DE08C4210D333F8022C5FFA82FC2A
:104190000CEB010E70454FEA122209DB043382B1A9
:1041A00033F8041C1D460029ECD1204630BD704771
:1041B000082AFAD8DFE802F0241E1B1815120F0C8B
:1041C000080005EB4C03DBE7A4F5E354A4B2ECE7ED
:1041D000503CA4B2E9E70834A4B2E6E71A3CA4B222
:1041E000E3E7303CA4B2E0E7203CA4B2DDE7103CBA
:1041F000A4B2DAE7631A03F00103E31A9CB2D4E72E
:10420000401A33F81040D0E7F88F00082DE9F0414C
:10421000B74E32788446B748002A00F055820CEB3E
:10422000010E1CF8017BB44D390600F1AA8112EE93
:10423000103A6FF38A2302EE103A002340F600444E
:10424000C4F202046361C2EB0212910000F0AA8181
:1042500000BF0139FCD131780368C1EB011143F48F
:104260008053890003604A1E6B61002900F0A5831A
:1042700000BF1346013A002BFAD131780368C1EB35
:10428000011189004A1E23F480587B06C0F8008083
:10429000C5F8148040F1CC8112EE103A43F48063EB
:1042A00002EE103A042340F60044C4F202046361B3
:1042B000002900F0CC8100BF1346013A002BFAD14F
:1042C00031780368C1EB011143F480538900036026
:1042D0004A1E6B61002900F0738300BF1346013A48
:1042E000002BFAD131780368C1EB011189004A1E15
:1042F00023F48058BC06C0F80080C5F8148040F153
:10430000848112EE103A43F4806302EE103A0423E3
:1043100040F60044C4F202046361002900F0848185
:1043200000BF1346013A002BFAD131780368C1EB84
:10433000011143F48053890003604A1E6B61002918
:1043400000F0418300BF1346013A002BFAD13178C7
:104350000368C1EB011189004A1E23F48058FB0653
:10436000C0F80080C5F8148040F13C8112EE103A8C
:1043700043F4806302EE103A042340F60044C4F292
:1043800002046361002900F03C8100BF1346013A3A
:10439000002BFAD131780368C1EB011143F480534B
:1043A000890003604A1E6B61002900F00F8300BF83
:1043B0001346013A002BFAD131780368C1EB0111A1
:1043C00089004A1E23F480583C07C0F80080C5F8D5
:1043D000148040F1538112EE103A43F4806302EEF0
:1043E000103A042340F60044C4F202046361002939
:1043F00000F0538100BF1346013A002BFAD1317807
:104400000368C1EB011143F48053890003604A1E25
:104410006B61002900F0DD8200BF1346013A002BDA
:10442000FAD131780368C1EB011189004A1E23F4E7
:1044300080587B07C0F80080C5F8148040F10B81DC
:1044400012EE103A43F4806302EE103A042340F671
:104450000044C4F202046361002900F00B8100BF34
:104460001346013A002BFAD131780368C1EB0111F0
:1044700043F48053890003604A1E6B61002900F0F9
:10448000AB8200BF1346013A002BFAD131780368A2
:10449000C1EB011189004A1E23F48058BC07C0F803
:1044A0000080C5F8148040F1FC8012EE103A43F40D
:1044B000806302EE103A042340F60044C4F2020482
:1044C0006361002900F0FC8000BF1346013A002B15
:1044D000FAD131780368C1EB011143F480538900AC
:1044E00003604A1E6B61002900F0798206E000BF7C
:1044F00088010020480600200008024000BF134643
:10450000013A002BFAD131780368C1EB011189001F
:104510004A1E23F48058FB07C0F80080C5F81480B9
:1045200047D512EE103A43F4806302EE103A0423AA
:1045300040F60044C4F202046361002947D000BF82
:104540001346013A002BFAD131780368C1EB01110F
:1045500043F48053890003604A1E6B6129B100BF98
:104560001346013A002BFAD1036823F48053F44533
:1045700003606B6134D01CF8017B327839067FF51B
:1045800056AE12EE103A43F4806302EE103A042362
:1045900040F60044C4F202046361C2EB02129100CF
:1045A0007FF456AE036843F480536B614FF0FF32E3
:1045B00069E612EE103A6FF38A2302EE103A0023F6
:1045C00040F60044C4F2020463610029B7D148F404
:1045D00080536B61F44523F4805303606B61CAD14F
:1045E000BDE8F08112EE103A6FF38A2302EE103A22
:1045F000002340F60044C4F20204636100297FF402
:10460000C4AE48F480536B61DCE612EE103A6FF3EF
:104610008A2302EE103A002340F60044C4F202045A
:10462000636100297FF47CAE48F480536B6194E6AB
:1046300012EE103A6FF38A2302EE103A002340F68E
:104640000044C4F20204636100297FF434AE48F4EC
:1046500080536B614CE612EE103A6FF38A2302EE40
:10466000103A002340F60044C4F2020463610029BA
:104670007FF4F5AE48F480536B610DE712EE103A0B
:104680006FF38A2302EE103A002340F60044C4F28E
:104690000204636100297FF4ADAE48F480536B617E
:1046A000C5E612EE103A6FF38A2302EE103A0023A9
:1046B00040F60044C4F20204636100297FF404AFB1
:1046C00048F480536B6124E7A74A0CEB0105E4E052
:1046D00012EE103A43F4806302EE103A042340F6DF
:1046E0000044C4F20204636100BF00BF00BF00BF0A
:1046F000036843F480530360536100BF00BF00BFF1
:1047000000BF03688E0623F480530360536140F1B9
:104710003A8112EE103A43F4806302EE103A042319
:1047200040F60044C4F20204636100BF00BF00BF52
:1047300000BF036843F480530360536100BF00BFB0
:1047400000BF00BF0368CC0623F4805303605361AD
:1047500040F10C8112EE103A43F4806302EE103AFD
:10476000042340F60044C4F20204636100BF00BFAA
:1047700000BF00BF036843F480530360536100BF70
:1047800000BF00BF00BF036823F480530360536180
:104790000B0740F1DB8012EE103A43F4806302EE27
:1047A000103A042340F60044C4F20204636100BFDF
:1047B00000BF00BF00BF036843F480530360536130
:1047C00000BF00BF00BF00BF03684F0723F4805342
:1047D0000360536140F1AD8012EE103A43F4806300
:1047E00002EE103A042340F60044C4F2020463616E
:1047F00000BF00BF00BF00BF036843F480530360E5
:10480000536100BF00BF00BF00BF03688E0723F4E1
:104810008053036053617FD512EE103A43F48063F6
:1048200002EE103A042340F60044C4F2020463612D
:1048300000BF00BF00BF00BF036843F480530360A4
:10484000536100BF00BF00BF00BF0368CC0723F463
:1048500080530360536152D512EE103A43F48063E3
:1048600002EE103A042340F60044C4F202046361ED
:1048700000BF00BF00BF00BF036843F48053036064
:10488000536100BF00BF00BF00BF0368AC4523F405
:104890008053036053613FF4A3AE1CF8011B0B0669
:1048A0007ED412EE103A6FF38A2302EE103A002300
:1048B00040F60044C4F20204636100BF00BF00BFC1
:1048C00000BF036843F480530360536100BF00BF1F
:1048D00000BF00BF03684F0623F480530360536199
:1048E0003FF5F6AE12EE103A6FF38A2302EE103A5D
:1048F000002340F60044C4F202046361F4E612EEC1
:10490000103A6FF38A2302EE103A002340F6004477
:10491000C4F202046361ABE712EE103A6FF38A232C
:1049200002EE103A002340F60044C4F20204636130
:104930007EE712EE103A6FF38A2302EE103A00235C
:1049400040F60044C4F20204636151E712EE103AEB
:104950006FF38A2302EE103A002340F60044C4F2BB
:104960000204636123E700BF0008024012EE103A20
:104970006FF38A2302EE103A002340F60044C4F29B
:1049800002046361F2E612EE103A6FF38A2302EE3C
:10499000103A002340F60044C4F202046361C4E606
:1049A00012EE103A43F4806302EE103A042340F60C
:1049B0000044C4F2020463617FE74FF0FF3262E417
:1049C0004FF0FF3294E44FF0FF32C6E44FF0FF3275
:1049D000F8E44FF0FF322AE54FF0FF325CE54FF08C
:1049E000FF3296E5F0B5844612EE103A43F4806348
:1049F00002EE103A042340F60044C4F2020463615C
:104A00006D4C2378002B40F0DD8000BF00BF00BF5D
:104A100000BF6A4A6A4861441468036944F48054D8
:104A20001460446100BF00BF00BF00BF146824F4DD
:104A300080541460446100BF00BF00BF00BF046920
:104A4000E6051468C3F3002344F480544FEA43039B
:104A5000146048BF0133446100BF00BF00BF00BF06
:104A6000146824F480541460446100BF00BF00BF88
:104A700000BF04695B00E5051468DBB244F48054B0
:104A800048BF0133146048BFDBB2446100BF00BFC0
:104A900000BF00BF146824F480541460446100BF58
:104AA00000BF00BF00BF04695B00E4051468DBB20F
:104AB00044F4805448BF0133146048BFDBB2446102
:104AC00000BF00BF00BF00BF146824F4805414600E
:104AD000446100BF00BF00BF00BF04695B00E70581
:104AE0001468DBB244F4805448BF0133146048BFFB
:104AF000DBB2446100BF00BF00BF00BF146824F4F4
:104B000080541460446100BF00BF00BF00BF04694F
:104B10005B00E6051468DBB244F4805448BF0133FF
:104B2000146048BFDBB2446100BF00BF00BF00BFDC
:104B3000146824F480541460446100BF00BF00BFB7
:104B400000BF04695B00E5051468DBB244F48054DF
:104B500048BF0133146048BFDBB2446100BF00BFEF
:104B600000BF00BF146824F480541460446100BF87
:104B700000BF00BF00BF04695B00E4051468DBB23E
:104B800044F4805448BF0133146048BFDBB2446131
:104B900000BF00BF00BF00BF146824F4805414603D
:104BA000446100BF00BF00BF00BF0CF8013B8C4553
:104BB0007FF432AFF0BD00BF88010020480600201E
:104BC00000080240C3EB03139B0000BF013BFCD174
:104BD000B04AB14861441368066943F480551560D2
:104BE00045612578C5EB0515AD00C6F3002E00F034
:104BF000708100BF013DFCD126781368C6EB061614
:104C000023F48053B6001360751E4361002E00F03C
:104C1000648100BF2B46013D002BFAD12378076940
:104C2000C3EB03139E0013684FEA4E0E43F4805308
:104C3000FF05136006F1FF3548BF0EF1010E436119
:104C4000002E00F0548100BF2B46013D002BFAD10D
:104C500026781368C6EB061623F48053B60013605B
:104C6000751E4361002E00F0468100BF2B46013DBA
:104C7000002BFAD123780769C3EB03139E004FEA98
:104C80004E0E13685FFA8EFEFF0543F4805348BF53
:104C90000EF1010E136006F1FF3548BF5FFA8EFE7C
:104CA0004361002E00F0358100BF2B46013D002BF3
:104CB000FAD126781368C6EB061623F48053B600A3
:104CC0001360751E4361002E00F0278100BF2B4644
:104CD000013D002BFAD123780769C3EB03139E0033
:104CE0004FEA4E0E13685FFA8EFEFF0543F48053C1
:104CF00048BF0EF1010E136006F1FF3548BF5FFAA1
:104D00008EFE4361002E00F0168100BF2B46013D50
:104D1000002BFAD126781368C6EB061623F48053CD
:104D2000B6001360751E4361002E00F0088100BFBD
:104D30002B46013D002BFAD123780769C3EB0313FF
:104D40009E004FEA4E0E13685FFA8EFEFF0543F495
:104D5000805348BF0EF1010E136006F1FF3548BFC6
:104D60005FFA8EFE4361002E00F0F78000BF2B46F5
:104D7000013D002BFAD126781368C6EB061623F402
:104D80008053B6001360751E4361002E00F0E98069
:104D900000BF2B46013D002BFAD123780769C3EBF6
:104DA00003139E004FEA4E0E13685FFA8EFEFF0556
:104DB00043F4805348BF0EF1010E136006F1FF3536
:104DC00048BF5FFA8EFE4361002E00F0D88000BF1E
:104DD0002B46013D002BFAD126781368C6EB061648
:104DE00023F48053B6001360751E4361002E00F05B
:104DF000CA8000BF2B46013D002BFAD123780769FA
:104E0000C3EB03139E004FEA4E0E13685FFA8EFE4B
:104E1000FF0543F4805348BF0EF1010E136006F105
:104E2000FF3548BF5FFA8EFE4361002E00F0B98067
:104E300000BF2B46013D002BFAD126781368C6EB44
:104E4000061623F48053B6001360751E4361002ECE
:104E500000F0AB8000BF2B46013D002BFAD1237838
:104E60000769C3EB03139E004FEA4E0E13685FFA07
:104E70008EFEFF0543F4805348BF0EF1010E136010
:104E800006F1FF3548BF5FFA8EFE4361002E00F049
:104E90009A8003E0480600200008024000BF2B462D
:104EA000013D002BFAD125781368C5EB051523F4D5
:104EB0008056AD0016606B1E466125B100BF1D46D1
:104EC000013B002DFAD10CF801EB8C457FF483AE49
:104ED00070E623F480531360436105694FEA4E0E78
:104EE00043F48053ED0548BF0EF1010E436123F4F6
:104EF00080531360436105694FEA4E0EEE055FFA79
:104F00008EFE76D50EF1010E43F480535FFA8EFECD
:104F1000436123F480531360436105694FEA4E0EE9
:104F2000EF055FFA8EFE68D50EF1010E43F4805353
:104F30005FFA8EFE436123F4805313604361056979
:104F40004FEA4E0EED055FFA8EFE4ED50EF1010EC4
:104F500043F480535FFA8EFE436123F48053136061
:104F6000436105694FEA4E0EEE055FFA8EFE34D5B9
:104F70000EF1010E43F480535FFA8EFE436123F479
:104F800080531360436105694FEA4E0EEF055FFAE7
:104F90008EFE36D50EF1010E43F480535FFA8EFE7D
:104FA000436123F480531360436105694FEA4E0E59
:104FB000ED055FFA8EFE14D50EF1010E43F4805319
:104FC0005FFA8EFE436123F48053136043610CF853
:104FD00001EB8C457FF4FFADECE543F48053436176
:104FE000CDE743F480534361EDE743F480534361DD
:104FF000B3E743F4805343618BE743F48053436149
:1050000099E743F480534361CBE700BF70B5054691
:1050100082B00E464FF47A74012101A8FFF7E2FC3A
:105020009DF80430FF2B08D141F2707300BF013BA3
:10503000FCD1013CF0D19DF80430FE2B02D00020C1
:1050400002B070BD31462846FFF7CCFC01A8022112
:10505000FFF7C8FC012002B070BD00BF70B5064666
:1050600082B00D4641F28834012101A8FFF7BAFC55
:105070009DF80430FF2B09D041F2707300BF013B53
:10508000FCD1013CF0D1204602B070BD012101A845
:105090008DF80450FFF7BAF8FD2D02D1012002B0BF
:1050A00070BD30464FF40071FFF7B0F801A802213F
:1050B000FFF798FC01A80121FFF794FC9DF804007C
:1050C00000F01F00A0F10500B0FA80F0400902B026
:1050D00070BD00BF30B5184D184A2B6883B023F45B
:1050E00000632B6001210DF106005361FFF77AFC8C
:1050F00041F2883401210DF10700FFF773FC9DF8A0
:105100000730FF2B14D041F2707300BF013BFCD17C
:10511000013CEFD12B68094A43F400632B600DF189
:10512000070053610121FFF75DFC204603B030BD4D
:10513000012003B030BD00BF480600200008024037
:1051400030B5030685B004460D465AD40C2C2ED13A
:105150004C22002362F307032A0E62F30F232A0C6A
:1051600062F317432A0A62F31F630124062102A88F
:105170008DF80C500DF1070502938DF80D40FFF7E7
:1051800045F821462846FFF72DFC0A242846012130
:10519000FFF728FC9DF907209DF80700002A04F17D
:1051A000FF3302DA13F0FF04F0D105B030BD1D4A21
:1051B0001D49136843F40063136002A84B61012189
:1051C000FFF710FCFFF786FF40B344F040020023D6
:1051D00062F307032A0E62F30F232A0C62F31743CC
:1051E0002A0A62F31F6302938DF80C5094B9952339
:1051F000062102A88DF80D300DF10705FFF706F81E
:10520000C3E700213720FFF79BFF0128CDD804F02A
:105210007F049BE7082C03D18723E9E7FF20C4E73D
:105220000123E5E7480600200008024010B9024BC0
:105230005878704701207047880100202DE9F0411F
:1052400082B0002834D14C4B00BF013BFCD14B4E07
:105250004B49326822F4805343F4006342F4006205
:105260004A610A2433604B61012101A8FFF7BAFBB0
:10527000611E11F0FF04F7D121462046FFF760FFC1
:105280000128074619D0012533683E4F3C4A7D70FE
:1052900043F40063336034710DF103005361012165
:1052A000FFF7A0FB002328463B7002B0BDE8F08169
:1052B0000325284602B0BDE8F0814FF4D5710820DF
:1052C000FFF73EFF012819D02146A920FFF738FF3C
:1052D00001288EBF4FF001084FF0A90802274FF4B4
:1052E0007A7500214046FFF72BFF20B34EF660236E
:1052F00000BF013BFCD1013DF3D1C4E704210DEB1C
:105300000100FFF76FFB9DF80630012BBBD19DF824
:105310000730AA2BB7D14FF47A754FF08041A920FE
:10532000FFF70EFF88B14EF6602300BF013BFCD1B2
:10533000013DF2D1A7E74FF400711020FFF700FF05
:10534000054600289FD13C469EE701463A20FFF7DC
:10535000F7FE0746002896D104210DEB0100FFF768
:1053600041FB9DF8045015F0400502D03D460C2449
:105370008AE7042488E700BFC02709004806002008
:1053800000080240880100202DE9F041224C94F8E9
:1053900001C00CF0010C50EA0C0082B03AD11F4F52
:1053A0001C463B791B070D46114658BF5102022C83
:1053B00034BF4FF011084FF012084046FFF7C0FE0F
:1053C0000646A8B1261E18BF01263B68144A43F4BE
:1053D00000633B60012153610DF10700FFF702FB01
:1053E000304602B0BDE8F081013C05F5007509D0FA
:1053F0004FF400712846FFF709FE0028F4D1261E5D
:1054000018BF0126B8F1120FDFD100210C20FFF7E1
:1054100097FEDAE70326E3E788010020480600202C
:1054200000080240F0B52C4C667806F0010C50EAFA
:105430000C0083B04DD1294F1C463B7916461A0704
:1054400058BF7602012C0D4635D013F0060F27D138
:1054500031461920FFF774FEA0B1003C18BF0124AB
:105460003B681F4A43F400633B60012153610DF127
:105470000700FFF7B7FA204603B0F0BD013C05F581
:10548000007505D0FC212846FFF7E8FD0028F5D17E
:10549000FD210020FFF7E2FD0028DED10124DFE737
:1054A00021469720FFF74CFE31461920FFF748FEB2
:1054B0000028E7D0D1E731461820FFF741FE002849
:1054C000ECD1FE212846FFF7C9FDB0FA80F464094B
:1054D000C6E70324CFE700BF88010020480600206C
:1054E0000008024030B5334B5B7803F0010350EA0B
:1054F000030487B025D1012915461BD0032916D0F6
:1055000099B9FFF7E7FDB0FA80F464092A4A2B48FD
:10551000136843F400631360012143610DF1070038
:10552000FFF760FA204607B030BD0424EEE7802381
:105530001360EBE721460920FFF702FE18B10124B2
:10554000E4E70324EEE7102102A8FFF75FFD00283F
:10555000F5D09DF808109DF811209DF810009DF8D9
:105560000F308909012919D09B0003EB90139DF896
:105570000E00520002F00601820202F4406213445F
:105580009DF80D209DF8120002F00F0202EBD012E0
:105590000A440133073A93402B60B7E7BDF8102067
:1055A0001B0452BA03F47C1313FA82F301339B02F7
:1055B0002B60ABE78801002048060020000802406D
:1055C0000020704780B582B000AF00F0F1F8684865
:1055D00000F064FC674800F061FC9FED670ADFEDB6
:1055E000670A9FED671ADFED671A9FED672ADFED07
:1055F000672A9FED5F3ADFED5F3A9FED654ADFED89
:105600005E4A00F051F9042000F0C4F9614B5B6C74
:10561000604A43F4804353645F4B1B6A5E4A43F025
:105620000103136200BF5C4B1B6A03F48073002B01
:10563000F9D001214FF4801000F0FCFF00F01EFBB8
:1056400000F060FA00F07EFA00F02EFA00F090FA16
:1056500000F0A4FA02F00CFD4FF4407000F020FDC1
:105660004E4B00221A6000F0B3FA4FF40D72002185
:105670004B48FAF789FE00224A494948FDF770FB7A
:1056800003467B707B78002B01D000BFFDE700F064
:1056900009FB00F0E7F900237B607B68002B18D042
:1056A0000221414801F094FD0346002B11D03E48F1
:1056B00001F0D4FC03467B807B88FF2B01D9FF23BC
:1056C0007B807A8813466FF3DF7304EE903A0023F1
:1056D0007B60364B1B68B3F1804FDED2334B1B68C7
:1056E00003F04053002BD8D0304B1B6803F04053DD
:1056F000B3F1805F1AD0B3F1005F33D12B4B1B683D
:1057000043F08043294A1360284B1B681B0ADBB215
:1057100003F00F03DBB2254A1268D2B211461846D5
:1057200000F03CFB214B00221A601FE01F4B1B685E
:1057300043F080431D4A13601C4B1B68DBB203F02F
:105740000303DBB20233D9B207230122164801F06A
:1057500007FC154801F052FC01237B60134B00222B
:105760001A6003E0114B00221A6000BF95E700BFEA
:10577000C04A0020000000100000000001000000EE
:1057800000080240003C01400000110000000240FF
:1057900010005555003802400038014010E000E08C
:1057A0005006002098790108002001409001002057
:1057B000DFF80807016841F470010160BFF34F8F03
:1057C000BFF36F8FDFF8F80601686FF39F71016018
:1057D000BFF34F8FBFF36F8F704700BF2DE970414C
:1057E00083B00023254D01939C4605E00CF1010C8C
:1057F000BCF10A0F35461FD040FA0CF3DB0705F168
:105800000406F3D502ACB646002214F8013D1EF89A
:10581000018D43441A44D3B2092BA3F10A028ABF73
:10582000D3B20022012275452370EED10CF1010C98
:10583000BCF10A0F3546DFD19DF80430CBB99DF895
:105840000530C3B99DF80630002B14BF0223032393
:10585000C3F1040001AA1A44084412F8013B303392
:1058600001F8013B8842F8D10023037003B0BDE882
:1058700070810023ECE70123EAE700BF9C7901086F
:1058800046F6824300FB03F310B100BF013BFCD19D
:10589000704700BF914206D2013811F8013B00F871
:1058A000013F8A42F9D1704738B52949294C621A1B
:1058B000002A04DDA14202D2274803F073FA274DE3
:1058C0002A1B002A05DDAC4203D22249244803F0FA
:1058D00069FA244C621B002A05DDA54203D21F4948
:1058E000214803F05FFA214D2A1B002A05DDAC4256
:1058F00003D21C491E4803F055FA1E4C621B002AB5
:1059000005DDA54203D219491B4803F04BFA1B4D94
:105910002A1B002A05DDAC4203D21649184803F0C1
:1059200041FA184C621B002A05DDA54203D2134937
:10593000154803F037FA154B1A1B002A07DD9C4265
:1059400005D2BDE838400F49114803F02BBA38BDE5
:105950002C7A01082C7A0108000000102C7A01082A
:10596000004000102C7A0108008000102C7A0108F9
:1059700000C000102C7A0108C04A00202C7A0108CF
:10598000C08A00202C7A0108C0CA00202C7A0108A5
:10599000C00A012070B5DFF8C8C00546BCE80F009A
:1059A0008CB002AC0FC45CF8043B2360BCE80F0071
:1059B0000DF11C0EAEE80F000CAB03EB8503DCF819
:1059C0000020CEF8002053F8284C53F8146C00F057
:1059D000E9FC012000F000FD00F006FD08B90CB064
:1059E00070BD6200022308214FF48000009600F091
:1059F0003FFD012000F04EFD174A13689B01FCD5C6
:105A0000022000F077FD002000F086FD134B40F2ED
:105A10000562042D1A6009D8012D0CD94FF4A0504D
:105A200000F084FD4FF4805000F08AFD0CB0BDE81A
:105A3000704000F0BFBA3DB14FF4805000F076FDE9
:105A4000002000F07DFDF1E7284600F06FFD2846BC
:105A500000F076FDEAE700BF00380240003C02405B
:105A6000C479010800B5012185B04FF4804000F0F1
:105A700011FE0421022000F0E9FA102101224FF466
:105A8000006302A802918DF80E20ADF80C3001F0F1
:105A9000DFF8044B019301A800F00CFB05B05DF8A2
:105AA00004FB00BF0A00000130B5012183B0134C94
:105AB000042000F0BFFD124B4FF4F052694620461F
:105AC000CDE90023002500F0D3FB4FF48073694635
:105AD000204600938DF8045000F0CAFB0F220123EA
:105AE000694620468DF8073000928DF8045000F08A
:105AF000BFFB4FF6FF73636103B030BD0008024087
:105B00000103000110B50E4C82B00121082000F005
